:020000040800F2
:10000000FCFF0020591C0000511C0000511C000086
:10001000511C0000511C0000511C0000511C00002C
:10002000511C0000511C0000511C0000511C00001C
:10003000511C0000511C0000511C0000511C00000C
:10004000511C0000511C0000511C0000511C0000FC
:10005000511C0000511C0000511C0000511C0000EC
:10006000511C0000511C0000511C0000511C0000DC
:10007000511C0000511C0000511C0000511C0000CC
:10008000511C0000511C0000511C0000511C0000BC
:10009000511C0000511C0000511C0000511C0000AC
:1000A000511C0000511C0000511C0000511C00009C
:1000B000511C0000511C0000511C0000511C00008C
:1000C000511C0000511C0000511C0000511C00007C
:1000D000511C0000511C0000511C0000511C00006C
:1000E000511C0000511C0000511C0000511C00005C
:1000F000511C0000511C0000511C0000511C00004C
:10010000511C0000511C0000511C0000511C00003B
:10011000511C0000511C0000511C0000511C00002B
:10012000511C0000511C0000511C0000511C00001B
:10013000511C0000511C0000511C0000511C00000B
:10014000511C0000511C0000511C0000511C0000FB
:1001500001480068704700BF7400002081B0194951
:1001600000EA0101084600220EE0042022E00820F7
:1001700020E010201EE020201CE040201AE080201B
:1001800018E040F2001015E00F498842EDD00F4909
:100190008842ECD00E498842EBD00E498842EAD022
:1001A0000D498842E9D00D498842E8D00C4988427F
:1001B000E7D010460B49096841EA000209490A6084
:1001C00001B0704700FCFFFF00080140000C014037
:1001D000001001400014014000180140001C0140C3
:1001E000002001401810024083B0CDF800E000F07C
:1001F000FF031A09104603F00F02134614E0194AD0
:1002000002921FE0184A02921CE0184A029219E07A
:10021000174A029216E0174A029213E0164A029217
:1002200010E0164A02920DE00028E8D00128E9D03B
:100230000228EAD00328EBD00428ECD00528EDD022
:100240000628EED0012212B29A40ADF8042002989E
:100250000A46BDF8041000F071FADDF800E003B0C2
:10026000704700BF00080140000C01400010014031
:100270000014014000180140001C01400020014012
:1002800082B0CDF800E0034619460191FFF760FF08
:1002900040F2E83100FB01F201990A601F49097838
:1002A000C1F30311C8B21E4909180878C0B21A1D5B
:1002B0001968C140116019490988C1F3022188B247
:1002C000174909180878C0B203F20802191D096815
:1002D000C140116011490988C1F3C22188B2104997
:1002E00009180878C0B203F20C02191D0968C14050
:1002F00011600A490988C1F3813188B20949091896
:100300000978C8B203F2100203F20C010968B1FBCC
:10031000F0F11160DDF800E002B070470410024017
:1003200000210000341B000081B0CDF800E081B254
:10033000034800F09DF8DDF800E001B0704700BF11
:100340000038004081B0CDF800E0012252B23E49B1
:100350000A6000F268010B686FF0006103EA0102B5
:10036000144603F00061C90E0B4602F00041B1F1E2
:10037000004F02D135490A6801E035490A6804F4A2
:100380007021090C0E464FF6FF7104EA01010D467B
:1003900004F44011B1F5401F0DD16FF0706102EA15
:1003A00001010E462A490A686FF070610A40284927
:1003B0000A60324616E004F48011B1F5801F09D1BD
:1003C0004FF00301B140C94302EA010141F07061FD
:1003D0000A4607E0610D090105FA01F1C9430A4027
:1003E00042F070622BB1610D090105FA01F10A4377
:1003F000FFE704F00041B1F1004F02D113490A6058
:1004000001E013490A6040F2000A81464FEA8A017E
:1004100009EB01010968B1F1FF3F10D009F1340186
:100420004FEA8A03C91809680A4609EB03010968FB
:1004300008461146FFF7D8FE0AF1010AE6E7DDF8A3
:1004400000E001B0704700BF000342421C000140C1
:100450000400014081B0CDF800E081B2034800F013
:1004600007F8DDF800E001B0704700BF0030014040
:1004700081B000F20C02116000F208021368C3F3AD
:10048000000202B9F8E700F20C02126890B201B063
:100490007047FFFF81B0ADF800100146BDF80000C5
:1004A0000B68C3F3C01202B9FAE70A1D106001B06D
:1004B0007047FFFF81B000230360CB009BB242EA8C
:1004C000030304689BB244EA03030360051D13148D
:1004D0001C462B6864F382032B6000F21C05002489
:1004E0002B6864F3CB232B600124036864F3861329
:1004F000036001B07047FFFF89B0CDF800E083468C
:1005000098B28C46BDF824100A9E04ACADF80410D5
:10051000ADF808002046FFF7B3FEBDF80800BDF8AF
:100520000410644CA34512D101256DB2624C2560C4
:10053000624D634C2560634D634C2560634D644C94
:100540002560644D644C2560079C039456E0634C21
:10055000A34512D101256DB2614C2560614D584C07
:100560002560614D584C2560604D594C2560604DAB
:10057000594C2560069C039440E05E4CA34512D183
:1005800001256DB25C4C25605C4D4D4C25605C4D89
:100590004D4C25605B4D4E4C25605B4D4E4C2560AF
:1005A000069C03942AE0594CA34512D101256DB253
:1005B000574C2560574D424C2560574D424C2560A5
:1005C000564D434C2560564D434C2560069C039484
:1005D00014E0544CA34511D101256DB2524C256055
:1005E000524D374C2560524D374C2560514D384C9B
:1005F0002560514D384C2560069C0394ADF80410DD
:10060000ADF808003046FFF79DFEBDF80800BDF8C4
:1006100004100BF1100500242C600BF110052C6860
:100620000C432C600BF10C0500242C6018B140F435
:10063000806080B2FFE70BF10C052C6804432C604E
:100640000BF10C060125346865F34D3434600BF171
:100650000C060125346865F3C30434600BF10C0605
:100660000125346865F3820434600BF1140500241D
:100670002C60039D192465434FEA8C04B5FBF4F705
:100680006424B7FBF4F42601350964246C433C1B55
:10069000240104F232056424B5FBF4F404F00F04E1
:1006A00046EA04040BF10805A4B22C60DDF800E072
:1006B00009B070470038014038034242450A000043
:1006C00080000020FFFFFFFF84000020FFFFFFFFEE
:1006D00088000020FFFFFFFF8C0000200044004046
:1006E000C4034242610A0000FFFFFFFFFFFFFFFF5C
:1006F000FFFFFFFF00480040C8034242290A0000F4
:10070000FFFFFFFFFFFFFFFFFFFFFFFF004C004069
:10071000CC034242F1090000FFFFFFFFFFFFFFFF94
:10072000FFFFFFFF00500040D00342420D0A0000CF
:10073000FFFFFFFFFFFFFFFFFFFFFFFF81B0CDF8CF
:1007400000E08CB21546774B00EA03031E461846BC
:10075000FFF704FDB4F1FF0F0CD1734B9D4203D1A1
:100760004FF033333360D9E0422D03D14FF044339F
:100770003360D3E04FF6FF739C4214D16A4B9D4225
:1007800007D14FF033333360341D4FF033332360E0
:10079000C4E0422D07D14FF044333360341D4FF095
:1007A00044332360BAE00021002005F001030BB1BF
:1007B00000211DE005F0020333B105F4C0730BB155
:1007C000082100E0042113E005F0040333B105F033
:1007D00020030BB1042100E0002109E005F008032B
:1007E00033B105F020030BB10C2100E00821FFE735
:1007F0004E4B05EA03030BB1032009E005F4007337
:100800000BB1022004E005F480630BB10120FFE787
:1008100005F00C030BB10143FFE704F0FF039BB2AB
:10082000002B3BD0376800201FFA84F832462E4652
:1008300008282CD24FF0010303FA00F408EA04035D
:10084000A34222D185004FF00F03AB40DB4307EA00
:10085000030401FA05F344EA03031D4606F4817319
:10086000B3F5817F05D102F214044FF001038340F8
:10087000236006F08203822B05D102F210044FF0B0
:100880000103834023602F46FFE7401CD0E7176039
:100890001FFA88F00F463146164602E00F462946F9
:1008A000A0B2B0F1FF0F39D9331DD3F80080002278
:1008B000082A30D202F208044FF0010303FA04F4CC
:1008C00000EA0403A34224D195004FF00F03AB408C
:1008D000DB4308EA030807FA05F348EA030801F4D2
:1008E0008173B3F5817F07D106F2140502F2080483
:1008F0004FF00103A3402B6001F08203822B07D14C
:1009000006F2100502F208044FF00103A3402B6029
:10091000FFE7521CCCE7331DC3F80080DDF800E090
:1009200001B0704700FCFFFF140008000008080039
:1009300081B0CDF800E081B20348FFF799FDDDF802
:1009400000E001B0704700BF003C004081B0CDF82E
:1009500000E081B20348FFF78BFDDDF800E001B055
:10096000704700BF0038004081B0CDF800E081B290
:100970000348FFF77DFDDDF800E001B0704700BFE0
:10098000003C004081B0CDF800E081B20348FFF7A1
:100990006FFDDDF800E001B0704700BF003001409E
:1009A00081B0CDF800E0019D2C4610B408B493B29C
:1009B0008AB201460348FFF79FFD02B0DDF800E070
:1009C00001B070470038014081B0CDF800E0019DD2
:1009D0002C4610B408B493B28AB201460348FFF71C
:1009E0008BFD02B0DDF800E001B07047004400402C
:1009F00081B0CDF800E081B20348FFF74BFDDDF890
:100A000000E001B0704700BF004C004081B0CDF85D
:100A100000E081B20348FFF73DFDDDF800E001B0E2
:100A2000704700BF0050004081B0CDF800E081B2B7
:100A30000348FFF72FFDDDF800E001B0704700BF6D
:100A40000048004081B0CDF800E081B20348FFF7D4
:100A500021FDDDF800E001B0704700BF0038014023
:100A600081B0CDF800E081B20348FFF713FDDDF857
:100A700000E001B0704700BF0044004083B0CDF8F3
:100A800000E08DF8040002910B4C0C4B1C600C4CE8
:100A90000C4B1C60012464B20B4B1C601046FFF72A
:100AA00051FC029A9DF804100848FFF703FDDDF899
:100AB00000E003B0704700BF31090000780000205B
:100AC000690900007C000020BC034242003C004059
:100AD00081B0CDF800E0044A89B2FFF72FFEDDF8BF
:100AE00000E001B0704700BF1400080081B0CDF8ED
:100AF00000E04FF0420289B2FFF720FEDDF800E08F
:100B000001B0704784B0CDF800E0ADF80C20019042
:100B10000291BDF80C40BDF80C305B1EADF80C30F6
:100B20007CB1019B1B78DCB2A0B2084C2468A047C2
:100B3000029B1870029B5B1C0293019B5B1C019340
:100B4000E7E7DDF800E004B0704700BF6400002074
:100B500081B0CDF800E0019D2C4610B408B493B2EA
:100B60008AB201460348FFF7C7FC02B0DDF800E097
:100B700001B070470048004001480068704700BF5E
:100B80002081224201480068704700BF2481224230
:100B900001480068704700BF388122420148006860
:100BA000704700BF0C01224201480068704700BF37
:100BB0001881214201480068704700BF1C81214212
:100BC00001480068704700BF1401214201480068D5
:100BD000704700BF1001214201480068704700BF04
:100BE0000801224200F230031A680B490A6003F23E
:100BF0001C010A6809490A6000F208010A680849EC
:100C00000A60011D0A6807490A6000F218010A68B3
:100C100005490A60704700BF5000002054000020C2
:100C2000580000205C00002060000020014908609E
:100C3000704700BF9C812142026803490A60011D80
:100C40000A6802490A6070477000002064000020B2
:100C500001480068704700BF3481224201480068A3
:100C6000704700BF0001214201480068704700BF83
:100C70002881224201480068704700BF30012242AB
:100C800001480068704700BF2801224201480068FF
:100C9000704700BF2C01224201480068704700BF26
:100CA0002801224201480068704700BF1881214294
:100CB00001480068704700BF1C81214281B006B521
:100CC0004FEA40024FEA12627F3A44BF4FF0000001
:100CD00011E0D2F11F0209D94FEA002141F0004191
:100CE000D14000284CBF4842084604E000284FF09D
:100CF000004058BF401EBDE8064001B07047FFFFEE
:100D000001480068704700BF1481224281B000286A
:100D100008BF0FE002B54FF09E0202D4521E400001
:100D2000FCD580302CBF521C4000400A40EAC25023
:100D3000BDE8024001B0704781B0CDF800E020B1BD
:100D40000120064C2468A04703E00020034C2468DF
:100D5000A047DDF800E001B0704700BF6000002050
:100D600081B0FAB590EA02064CBF4FF000464FF052
:100D700000064FEA00214FEA40031B0E12BF41F06C
:100D800000414FF000002CE0FF2B26D04FEA022458
:100D90004FEA42052D0E12BF44F000444FF0000010
:100DA0001FE0FF2D19D05B19A1FB0454002C5CBF80
:100DB00064005B1E803424BF5B1C64087E3BDCBF88
:100DC0004FF000000DE0FF2B07D24FEA142030F463
:100DD000000040EAC350304303E0FF27FF0546EA26
:100DE0000700BDE8FA4001B07047FFFF83B0CDF8BF
:100DF00000E08AB2014690B283B2421E90B26BB15B
:100E00000A78D4B2ADF804000291A0B2054C24686F
:100E1000A0470299BDF80400491CEDE7DDF800E0A9
:100E200003B070477000002081B0FAB590EA020666
:100E30004CBF4FF000464FF00006010243001B0E6E
:100E400012BF41F000414FF000003BE0FF2B35D0D6
:100E50005FEA02245FEA42055FEA156511BF44F0CC
:100E600000444FF0FF4030432CE0FF2D26D05B1BA9
:100E70000020202764084908A14240EB000028BF59
:100E8000091B7F1E04D0002918BF4900F4D1B840C7
:100E900010F0004F04BF4000B3F1010380302CBFBD
:100EA0005B1C40007F33DCBF4FF000000AE0FF2BEB
:100EB00004D2400A40EAC350304303E0FF27FF0555
:100EC00056EA0700BDE8FA4001B0704701480068E3
:100ED000704700BF3081224201480068704700BF60
:100EE0003081224201480068704700BF2C01224235
:100EF00001480068704700BF300122420148006885
:100F0000704700BF18812242C3B0CDF800E08DF8D1
:100F1000040142910DF1040B0BF5807ADFF838C023
:100F200000F074FD00F02CFD80B900200B4C24680B
:100F3000A04701AA429910469DF80421FFF7E2FD5F
:100F40000120064C2468A047002000E00120DDF8C5
:100F500000E043B0704700BFBC1D000058000020F7
:100F600040F20B07C0F200077F1EFDD100BF00BF9B
:100F700000BF00BF00BF704781B0002808BF19E064
:100F800006B554BF0146D0F100014FF09E0202D4D5
:100F9000521E4900FCD580312CBF521C49004FEA3B
:100FA000512141EAC25100284CBF41F0004008469F
:100FB000BDE8064001B0704781B00A4601460020F6
:100FC0000D4611460A2805D20B1820221A70401C23
:100FD00080B2F7E70B1800221A70401E80B20C187E
:100FE0000A23B5FBF3F203FB1252303222700A22BD
:100FF000B5FBF2F2154602B902E0401E80B2EEE700
:1010000001B0704701490860704700BF98812142D4
:1010100001490860704700BF880122420149086009
:10102000704700BFB481224281B0CDF800E0017862
:10103000CCB2A0B2034C2468A0470020DDF800E049
:1010400001B070474C00002001490860704700BFA4
:101050009001214201490860704700BFB00122425F
:1010600001490860704700BF8001214201490860C2
:10107000704700BFA801224201490860704700BFC5
:10108000AC01224281B0CDF800E0011D0A68016880
:10109000C8B21146034AFFF7F1FC0020DDF800E07A
:1010A00001B07047941F000081B0CDF800E0011D31
:1010B0000A680168C8B21146034AFFF7DFFC002046
:1010C000DDF800E001B07047941F000081B0CDF85A
:1010D00000E0A9E0012905D140F210016548FFF7C1
:1010E00005FD04E040F210016248FFF7F1FCBBE0AF
:1010F000012905D140F204015F48FFF7F7FC04E045
:1011000040F204015C48FFF7E3FCADE0012905D1A2
:1011100042F200015948FFF7E9FC04E042F2000105
:101120005648FFF7D5FC9FE0012905D140F2004168
:101130005148FFF7DBFC04E040F200414E48FFF766
:10114000C7FC91E0012905D140F600014A48FFF7AC
:10115000CDFC04E040F600014748FFF7B9FC83E00E
:10116000012905D141F200014348FFF7BFFC04E02B
:1011700041F200014048FFF7ABFC75E0012905D1C1
:1011800040F201013B48FFF7B1FC04E040F20101ED
:101190003848FFF79DFC67E0012905D140F2004186
:1011A0003648FFF7A3FC04E040F200413348FFF764
:1011B0008FFC59E0012905D140F200212F48FFF7AB
:1011C00095FC04E040F200212C48FFF781FC4BE045
:1011D000012905D140F200112848FFF787FC04E0FF
:1011E00040F200112548FFF773FC3DE0012905D1CD
:1011F00040F240012248FFF779FC04E040F2400150
:101200001F48FFF765FC2FE0012905D140F280015E
:101210001B48FFF76BFC04E040F280011848FFF721
:1012200057FC21E0012020E000283FF453AF0128C3
:101230003FF45EAF02283FF469AF03283FF474AF78
:1012400004283FF47FAF05283FF48AAF06283FF417
:1012500095AF0728A0D00828ACD00928B8D00A2814
:10126000C4D00B28D0D0DDE70020DDF800E001B0CD
:10127000704700BF00080140001001400014014009
:10128000000C014081B0CDF800E0A9E0012905D1B2
:1012900040F220016548FFF729FC04E040F22001FC
:1012A0006248FFF715FCBBE0012905D140F20801B7
:1012B0005F48FFF71BFC04E040F208015C48FFF7C1
:1012C00007FCADE0012905D144F200015948FFF7C0
:1012D0000DFC04E044F200015648FFF7F9FB9FE0E3
:1012E000012905D140F200415148FFF7FFFB04E01E
:1012F00040F200414E48FFF7EBFB91E0012905D198
:1013000040F600014A48FFF7F1FB04E040F6000117
:101310004748FFF7DDFB83E0012905D141F20001D9
:101320004348FFF7E3FB04E041F200014048FFF7C8
:10133000CFFB75E0012905D141F200013D48FFF7DF
:10134000D5FB04E041F200013A48FFF7C1FB67E03A
:10135000012905D140F600013648FFF7C7FB04E03C
:1013600040F600013348FFF7B3FB59E0012905D1EE
:1013700040F240012F48FFF7B9FB04E040F2400182
:101380002C48FFF7A5FB4BE0012905D140F22001D5
:101390002848FFF7ABFB04E040F220012548FFF7A7
:1013A00097FB3DE0012905D140F240012248FFF7BB
:1013B0009DFB04E040F240011F48FFF789FB2FE04E
:1013C000012905D140F280011B48FFF78FFB04E0A3
:1013D00040F280011848FFF77BFB21E0012020E06C
:1013E00000283FF453AF01283FF45EAF02283FF4DA
:1013F00069AF03283FF474AF04283FF47FAF05289A
:101400003FF48AAF06283FF495AF0728A0D00828FC
:10141000ACD00928B8D00A28C4D00B28D0D0DDE73A
:101420000020DDF800E001B0704700BF0008014077
:101430000010014000140140000C014081B0CDF8C3
:1014400000E0094902B440F2000340F2000240F219
:101450000001FFF7A5FA01B0044A05490A6000201F
:10146000DDF800E001B07047281F0000450A0000C9
:101470004C00002081B0CDF800E0094902B440F2F0
:10148000000340F2000240F20001FFF79DFA01B0B4
:10149000044A05490A600020DDF800E001B0704709
:1014A00000200000610A00004C00002081B0CDF84F
:1014B00000E0094902B440F2000340F2000240F2A9
:1014C0000001FFF745FB01B0044A05490A6000200E
:1014D000DDF800E001B07047BC1E0000290A0000E2
:1014E0004C00002081B0CDF800E0094902B440F280
:1014F000000340F2000240F20001FFF765FA01B07C
:10150000044A05490A600020DDF800E001B0704798
:1015100000200000610A00004C0000200149086022
:10152000704700BFA881224201490860704700BF90
:10153000AC01224201490860704700BF94812242F9
:1015400001490860704700BFA801224201490860B4
:10155000704700BF9881224201490860704700BF70
:10156000B081224201490860704700BFB081224229
:1015700001490860704700BFB0012242014908607C
:10158000704700BF9881214201490860704700BF41
:101590009C81214201490860704700BFA48122421A
:1015A00001490860704700BFA081224201490860DC
:1015B000704700BF9401214201490860704700BF95
:1015C000B881224201490860704700BF8C01224265
:1015D00081B0CDF800E020B10120064C2468A0477E
:1015E00003E00020034C2468A047DDF800E001B0D0
:1015F000704700BF5C00002081B0CDF800E011E032
:101600000846FFF753FF16E00846FFF76BFF12E0AE
:101610000846FFF713FF0EE00846FFF72BFF0AE02E
:10162000012008E00028EBD00128EDD02028EFD0E1
:101630003028F1D0F4E7DDF800E001B07047FFFF9B
:1016400081B0CDF800E00E4600210346002804DA00
:101650000121404200468FB201E018468FB2314668
:10166000FFF7AAFC0B213446B8B2002908D9631849
:101670004A1E92B2A21812781A70491E89B2F4E773
:101680002022227070B1002081B2204642181278C8
:10169000202A02D1491C89B2F8E74A1E92B2831867
:1016A0002D221A70DDF800E001B0704781B0CDF84E
:1016B00000E08B4609E05846FFF7E4FC0AE0584694
:1016C000FFF7F2FC06E0012004E00028F3D0012837
:1016D000F5D0F8E7DDF800E001B0704781B0CDF853
:1016E00000E05FFA81F95FFA82FA0FE05FFA8AF1AF
:1016F0005FFA89F0FFF7EAFC0DE05FFA8AF15FFA22
:1017000089F0FFF7BFFD06E0012004E00028EDD0DE
:101710000128F2D0F8E7DDF800E001B07047FFFFE4
:1017200086B0CDF800E0029001A90420FFF7ECFBA1
:101730005FFA80F810B15FFA88F02AE001AB1978FF
:10174000C8B20202591C097842EA01010A02991C36
:10175000097842EA01010A02D91C097842EA01012A
:101760000846FFF709FC014605910C490868FFF798
:10177000CDFA0390039A0598FFF756FB08490A68CB
:10178000FFF7EEFAFFF79AFA00B2029908805FFAC3
:1017900088F0DDF800E006B0704700BF6800002068
:1017A0006C00002081B0CDF800E003460846FFF74A
:1017B00043FA1846FFF716FA01200C4C2468A0479C
:1017C00000200B4C2468A04700200A4C2468A04746
:1017D0000423094A1380094B094A13606FF0004340
:1017E000084A1360DDF800E001B07047580000209F
:1017F0005C000020600000204A00002000C07E4500
:101800006C0000206800002083B0CDF800E00328C1
:1018100001D902206BE0022902D30E2900D801E091
:10182000032064E0012A02D3072A00D801E0042043
:101830005DE00124304B1C8000258DF80420C2B2ED
:101840009DF804008D4206D22B4C23885B00238038
:101850006D1CEDB2F6E720E0284C294B1C606FF0C0
:101860000044284B1C6021E0244C254B1C606FF089
:101870004044244B1C6019E0234C214B1C606FF04A
:101880000044204B1C6011E01F4C1D4B1C606FF08E
:1018900040441C4B1C6009E008E0002ADCD0012A0F
:1018A000E2D0022AE8D0032AEED0F5E702AD802389
:1018B0002B701401A4B22B7823432B702B780B438D
:1018C0002B706C1C0301237000F06AF870B90020C3
:1018D0000E4C2468A04702AB02211846FFF786FA97
:1018E00001200A4C2468A047002000E00120DDF818
:1018F00000E003B0704700BF4A00002000C07E45F2
:101900006C00002068000020CDCC4B455800002022
:1019100083B0CDF800E0024610460D228DF8082075
:101920000A228DF809201FE0FFF77EFB23E00278F2
:101930002AB10190FFF778FB0198401CF7E71AE005
:1019400002782AB10190FFF76FFB0198401CF7E77E
:1019500002AA1046FFF768FB0DF109021046FFF7D7
:1019600063FB08E0062007E00029DDD00129DED076
:101970000229E5D0F6E70020DDF800E003B070476B
:1019800081B0CDF800E0054C2468A04708B10120E3
:1019900000E00020DDF800E001B0704750000020BA
:1019A00081B0CDF800E0054C2468A04708B10120C3
:1019B00000E00020DDF800E001B070475400002096
:1019C00082B0CDF800E00020ADF804000E48018898
:1019D000BDF80400884213D20120FFF7ADF9FFF7EC
:1019E000BFFA0020FFF7A8F9FFF7BAFAFFF7D8FF10
:1019F00000B1FBE7BDF80400401CADF80400E5E7CA
:101A0000DDF800E002B070474A00002081B01CF809
:101A1000019B0BF8019BBBEB0A0FF8D101B070479B
:101A200081B01548006840F0010113480160134976
:101A30001348016010480168124801400E480160D7
:101A40000D4801686FF4802001400B4801600C488C
:101A500001686FF4FE000140094801600648016812
:101A60006FF0A0500140044801604FF000010648AB
:101A7000016001B0704700BF001002400000FFF09D
:101A800004100240FFFFF6FE2C10024081B04FF020
:101A900000094FF0000CBDEB0A0F04DCBDEB0B0F8F
:101AA00001DBD446EA464BF8049BBBEB0A0FFAD1A4
:101AB000BCEB0A0F05DDE246D9F800B00BF1040BD0
:101AC000F1E701B07047FFFF81B0CDF800E0FFF70C
:101AD00077FFFFF755FF012800D1FAE71148FFF71C
:101AE0001FFE1048B0F900000F49FFF7A9FD0F488D
:101AF0000121FFF70DFF01210B48FFF709FF0C48FB
:101B00000221FFF705FF49F6FF67C0F2240700BF77
:101B100000BF7F1EFDD100BF00BF00BFDDF800E0A9
:101B200001B070473400002036000020260000205D
:101B3000310000200204060881B0CDF800E01C4905
:101B40001C48FFF72FFE4EF67F67C0F2360700BF36
:101B500000BF7F1EFDD100BF00BF00BF0020FFF708
:101B600037FDFFF71DFF012800D1FAE70722062104
:101B70000020FFF749FEFFF713FF012800D1FAE725
:101B80000D480221FFF7C4FE0C480221FFF7C0FEFA
:101B900044F67F77C0F212077F1EFDD100BF00BF61
:101BA00000BF00BF00BFDDF800E001B0704700BF1C
:101BB000182100006C20000000000020150000200B
:101BC00081B0CDF800E0012207210020FFF786FD5B
:101BD000012200210020FFF781FD002201210020C9
:101BE000FFF77CFD002202210020FFF777FD002295
:101BF00006210020FFF772FD0E4801460020FFF786
:101C000055FD42F280512020FFF7F6FC0A480221E0
:101C1000FFF77EFE44F67F77C0F2120700BF00BFD9
:101C20007F1EFDD100BF00BF00BFDDF800E001B0A6
:101C3000704700BF102100001600002081B002494B
:101C40000248016001B07047401901007400002093
:101C500081B0FEE701B0704700F00EF800F0A0FA86
:101C6000FFF7ECFF00F05CFAFFF7AAFFFFF764FF55
:101C7000FFF72AFFFCE7FEE781B0CDF800E0464A17
:101C8000464B474C47494BF68030814206D946487F
:101C9000006840F002014448016011E045F6C05080
:101CA000814206D94048006840F001013E48016089
:101CB00006E03D4801686FF0070001403A480160C6
:101CC000FFF7AEFE3948036039480460394802EA3C
:101CD00000013948016002F0010040B11946364860
:101CE000006800F00200002800D1F8E700E0194683
:101CF00002F4803040B10B462F48006800F40030F9
:101D0000002800D1F8E700E00B4602F0805068B1EF
:101D10002948006840F08051274801602648006843
:101D200000F00050002800D1F8E7FFE702F08060E3
:101D300078B12148006840F080611F480160114679
:101D40001A461D48006800F00060002800D1F8E73E
:101D500001E011461A4601F0807070B11648006823
:101D600040F080711448016011461348006800F08B
:101D7000007000B9F9E70A46FFE70C48006800F078
:101D80000C01900000F00C00814200D0F5E7DDF876
:101D900000E001B0704700BF8100010502841D0012
:101DA00044060100401901000020024004100240D6
:101DB0002C100240FFFF0F00001002400000000046
:101DC0000000000000000000000000000000000013
:101DD0000000000000000000000000000000000003
:101DE00000000000000000000000000000000000F3
:101DF00000000000000000000000000000000000E3
:101E000000000000000000000000000000000000D2
:101E100000000000000000000000000000000000C2
:101E200000000000000000000000000000000000B2
:101E300000000000000000000000000000000000A2
:101E40000000000000000000000000000000000092
:101E50000000000000000000000000000000000082
:101E60000000000000000000000000000000000072
:101E70000000000000000000000000000000000062
:101E80000000000000000000000000000000000052
:101E90000000000000000000000000000000000042
:101EA0000000000000000000000000000000000032
:101EB00000000000000000000000000038000000EA
:101EC00039000000FFFFFFFF0000000000000000DD
:101ED0000000000000000000000000000000000002
:101EE00000000000000000000000000000000000F2
:101EF00018080000180000000000000000000000AA
:101F000000000000000000000000000000000000D1
:101F100000000000000000000000000000000000C1
:101F20000000000030001408090000000A00000052
:101F3000FFFFFFFF000000000000000000000000A5
:101F40000000000000000000000000000000000091
:101F50000000000000000000000000001808000061
:101F60001800000000000000000000000000000059
:101F70000000000000000000000000000000000061
:101F80000000000000000000000000000000000051
:101F9000040000002A0000002B0000002C000000BC
:101FA000FFFFFFFF00000000000000000000000035
:101FB0000000000000000000000000000000000021
:101FC00000000000000000001808000018080000D1
:101FD00018080000000000000000000000000000E1
:101FE00000000000000000000000000000000000F1
:101FF00000000000000000000000000000112008A8
:102000003500000036000000FFFFFFFF0000000069
:1020100000000000000000000000000000000000C0
:1020200000000000000000000000000000000000B0
:102030000000000018080000180000000000000068
:102040000000000000000000000000000000000090
:102050000000000000000000000000000000000080
:102060000000000000000000080000084910000007
:10207000111000001D1000006D100000791000000C
:1020800055100000611000001D150000951500009E
:10209000A11500007D15000089150000CD0B000082
:1020A000D90B0000510C0000810C00008D0C0000C9
:1020B000750C00005D0C0000690C0000850B000031
:1020C000790B0000A90B0000B50B00004144432030
:1020D0003720697320696E697469616C697A656417
:1020E0000000496E697469616C697A696E672E2EA9
:1020F0002E00566F6C746167653A2020006D5600A3
:10210000000000000102030401020304060708099D
:102110000700000004030000690900003109000005
:1021200000B5DFF814B0DFF814A0DFF814C0FFF733
:102130006DFC00BD704700BF00000020340000208F
:10214000CC200000FFFFFFFFFFFFFFFFFFFFFFFFAF
:10215000FFFFFFFFFFFFFFFFFFFFFFFFFFFFFFFF8F
:10216000FFFFFFFFFFFFFFFFFFFFFFFFFFFFFFFF7F
:10217000FFFFFFFFFFFFFFFFFFFFFFFFFFFFFFFF6F
:10218000FFFFFFFFFFFFFFFFFFFFFFFFFFFFFFFF5F
:10219000FFFFFFFFFFFFFFFFFFFFFFFFFFFFFFFF4F
:1021A00000B5DFF810B0DFF810A0FFF76FFC00BD3E
:1021B000704700BF0000002090000020FFFFFFFFDD
:00000001FF
